:100BE700536F696C204D6F697374757265203A2075
:100BF7000020202020002E00250020202050756D89
:100C070070206973204F4E20202000202050756DE2
:100C170070206973204F666620200048756D203D5F
:100C2700200054656D70203D200020004300535480
:100C3700415254494E470020202020204572726FB0
:020C4700720039
:100C820020300C00040E04150E040000040E0E0E9B
:100C92001F0400000A1511110A04000E11111F1B76
:100CA2001B1B1F0E11101F1B1B1B1F000E151B0EE3
:070CB2000E0000020A00031E
:080C4900C2A2D2A17F057E00CA
:100C5100D3EF9400EE6480948040257DFAEDD39427
:100C6100007480948040031D80F37DF8EDD39400DF
:100C71007480948040031D80F3EF1F70D31E80D0D9
:010C81002250
:070D71007F01120D787F8065
:0A0D78008FB0C2A0120C49C2A122E4
:0A0D82008FB0D2A0120C49C2A122CA
:100D16007F40120D78E4FBFA740C2BF8E6FF120DF7
:100D2600820BBB00010AEB64304A70EC7F80020D37
:010D36007844
:0D0CBA007F647E00120C517BFF7A0B79FDE8
:100CC7008B518A528953AB51AA52A953120A0B600E
:100CD700130553E5537002055214F9120A0BFF125C
:050CE7000D8280E222F5
:100D37007F38120D787F0C120D787F01120D787FA6
:040D470080020D78A1
:100800007F01120D78A2A4E433750000F500AE005C
:10081000FF7C007D64120A247C037DFF120A368E61
:10082000008F0085004F8500507BFF7A0B79E7121F
:100830000CC77FC0120D787BFF7A0B79F8120CC7BA
:10084000AE4FAF507C007D0A120A368E008F00AE8C
:100850004FAF507C007D0A120A368C008D00E500F7
:100860002430F54DE5002430F54E7B007A00794DBB
:10087000120CC7120CC1AE00AF007C007D0A120A38
:10088000248E008F00AE00AF00120A368C008D005F
:10089000AE00AF007C007D0A120A248E008F001289
:1008A0000A368C008D00E5002430F54DE50024303B
:1008B000F54E7B007A00794D120CC77BFF7A0B79DD
:1008C000FF120CC77FC87E00120C517F01120D78F9
:1008D000C3E500940AE500648094807BFF50117AA0
:1008E0000C7901120CC7D2A5750A00750B01800F97
:1008F0007A0C7912120CC7C2A5750A00750B02AEEC
:100900000AAF0B7C007D02120A36ED64034C7009BD
:0A0910007BFF7A0C7912120CC7224B
:100D4B00758901758CB8758A0CD28C308DFDC28C6F
:030D5B00C28D2224
:100D5E00758901758CFF758AF1D28C308DFDC28C30
:030D6E00C28D2211
:080D9600C2A3120D4BD2A322EF
:0A0D8C0020A3FD30A3FD20A3FD22EB
:100CEC00E4FFFEFDFC30A3FD120D5EEF25E0FFEEF0
:100CFC0033FE30A306EF4401FF800020A3FD0DBDA1
:090D0C0000010CED64084C70DCE0
:010D150022BB
:10091A007BFF7A0C7922120CC7AE44AF457C007D6E
:10092A000A120A36AB07AE44AF457C007D0A120AAA
:10093A0036EB2430F546AF05EF2430F5477B007AD5
:10094A00007946120CC7120CC1AE40AF417C007D43
:10095A000A120A36AB07AE40AF417C007D0A120A82
:10096A0036EB2430F546AF05EF2430F5477B007AA5
:10097A00007946120CC77BFF7A0B79FF120CC77FEE
:10098A00C0120D787BFF7A0C7929120CC7AE42AFE0
:10099A00437C007D0A120A36AB07AE42AF437C00A5
:1009AA007D0A120A36EB2430F53CAF05EF2430F508
:1009BA003D7B007A00793C120CC7120CC1AE3EAFE7
:1009CA003F7C007D0A120A36AB07AE3EAF3F7C0081
:1009DA007D0A120A36EB2430F53CAF05EF2430F5D8
:1009EA003D7B007A00793C120CC77BFF7A0C793187
:1009FA00120CC77FDF120D827BFF7A0C7933020C4F
:010A0A00C724
:100AC100120D377BFF7A0C7935120CC7120CBA1252
:100AD1000CBA120CBA7F647E00120C51120D9612E0
:100AE1000D8C120CEC8E448F45120CEC8E408F4114
:100AF100120CEC8E428F43120CEC8E3E8F3F120C87
:100B0100EC8E088F09120D71E5452541FFE544354D
:100B110040FEE5432FFFE5423EFEE53F2FFFE53E68
:100B21003EFEEF65097003EE6508600B7BFF7A0CF2
:100B3100793E120CC7800312091A7FF47E01120C50
:100B410051120D71D2A47F967E00120C5112080031
:0A0B51007FF47E01120C51020AE34A
:03000000020B5B95
:0C0B5B00787FE4F6D8FD758153020BA2F0
:100A0B00BB010689828A83E0225002E722BBFE02E9
:090A1B00E32289828A83E493221C
:100A2400EF8DF0A4A8F0CF8CF0A428CE8DF0A42EE6
:020A3400FE22A0
:100A3600C2D5EC30E709B2D5E4C39DFDE49CFCEEDB
:100A460030E715B2D5E4C39FFFE49EFE120A6CC3DD
:100A5600E49DFDE49CFC8003120A6C30D507C3E4D8
:060A66009FFFE49EFE224A
:100B6700020AC1E493A3F8E493A34003F68001F2D9
:100B770008DFF48029E493A3F85407240CC8C3338F
:100B8700C4540F4420C8834004F456800146F6DF5E
:100B9700E4800B0102040810204080900C82E47E60
:100BA700019360BCA3FF543F30E509541FFEE49353
:100BB700A360010ECF54C025E060A840B8E493A31A
:100BC700FAE493A3F8E493A3C8C582C8CAC583CA45
:100BD700F0A3C8C582C8CAC583CADFE9DEE780BEFD
:010CB900003A
:100A6C00BC000BBE0029EF8DF084FFADF022E4CC6E
:100A7C00F875F008EF2FFFEE33FEEC33FCEE9DEC37
:100A8C00984005FCEE9DFE0FD5F0E9E4CEFD22ED7D
:100A9C00F8F5F0EE8420D21CFEADF075F008EF2FC7
:100AAC00FFED33FD4007985006D5F0F222C398FDB8
:050ABC000FD5F0EA2255
:00000001FF
